:100000000C9492000C94BA000C94BA000C94EF0F6C
:100010000C94EF0F0C94EF0F0C94BA000C94430E59
:100020000C94BA000C94BA000C94BA000C947901A8
:100030000C94BA000C94BA000C94BA000C94BA0058
:100040000C94A50F0C94BA000C949A0D0C94740D9A
:100050000C94BA000C94BA000C94BA000C94BA0038
:100060000C9441020C94BA004D164F166316771685
:1000700086169916A916036EDB363D9A9999993D15
:10008000ABAAAA2A3E000000803F072C7AA5BA6CD2
:10009000C590DA3B9365FC8BBC53F810FD3C56923F
:1000A000834DBD879D3AB63DCBC9BF5BBE73DA0FAA
:1000B000C93F1112131415160A0B0C0D0E0F000177
:1000C0000203040500000000240027002A000000AD
:1000D0000008000201000003040700000000000007
:1000E00000000200000000250028002B0000000096
:1000F000002300260029000404040404040404026C
:1001000002020202020303030303030102040810B4
:100110002040800102040810200102040810200081
:10012000BF23AF2311241FBECFEFD8E0DEBFCDBF6A
:1001300011E0A0E0B1E0E8EAF9E502C005900D9217
:10014000AA3FB107D9F726E0AAEFB1E001C01D929E
:10015000A633B207E1F710E0C1E9D0E004C021976F
:10016000FE010E949C26C039D107C9F70E9443179F
:100170000C94C72C0C94000085ED8093BC008091FA
:10018000BC0084FDFCCF10929D03089540910003B4
:10019000262F30E0240F311D21323105DCF420916F
:1001A0009D032430C9F4FC0180E090E0861758F4E8
:1001B000309100032191DC01A252BD4FA30FB11D6C
:1001C0002C930196F3CF80910003680F6093000396
:1001D00080E0089581E0089582E008950895E09117
:1001E000FF018091FE01E81730F4F0E0E254FD4F8A
:1001F000808190E008958FEF9FEF08959091FF0127
:100200008091FE01981750F4E92FF0E0E254FD4F81
:10021000208130E09F5F9093FF0102C02FEF3FEFFE
:10022000C90108958091FE0190E02091FF01821B99
:1002300091090895CF92DF92EF92FF920F931F934F
:10024000CF93DF937C01262F972F8A0180919E0305
:10025000882391F0C62FD72F6E01C40ED51ECC1562
:10026000DD0571F06991D701ED91FC910190F0816C
:10027000E02DC7010995F3CF642F822F0E94C6009D
:10028000C801DF91CF911F910F91FF90EF90DF9008
:10029000CF900895CF93DF931F92CDB7DEB76983D8
:1002A00020919E032223D1F02091C103203240F0FF
:1002B00021E030E0FC013383228380E090E015C030
:1002C00080919F03E82FF0E0E056FC4F99819083E6
:1002D0008F5F80939F038093C10305C061E0CE01CF
:1002E00001960E94C60081E090E00F90DF91CF91CF
:1002F00008951F920F920FB60F9211242F933F93E0
:100300004F935F936F937F938F939F93AF93BF931D
:10031000EF93FF938091250387FF05C0109285001E
:10032000109284001BC020912503022E000C330B79
:100330008091260390E02817390784F480912503E3
:10034000082E000C990BFC01EE0FFF1F8E0F9F1F54
:10035000FC01ED5EFD4F808186FD15C08091250377
:100360008F5F8093250320912503022E000C330B11
:100370008091260390E028173907C4F48091250363
:100380008C3064F113C080912503082E000C990B6A
:10039000FC01EE0FFF1F8E0F9F1FFC01ED5EFD4F56
:1003A000808160E08F730E94CC0DD8CF8091840053
:1003B00090918500049680329E4418F480E29EE479
:1003C00005C08091840090918500049690938900E7
:1003D000809388008FEF809325033BC02091840099
:1003E0003091850080912503082E000C990BFC01AB
:1003F000EE0FFF1F8E0F9F1FFC01ED5EFD4F8181F1
:100400009281820F931F909389008093880080913E
:100410002503082E000C990BFC01EE0FFF1F8E0F19
:100420009F1FFC01ED5EFD4F808186FF12C0809111
:100430002503082E000C990BFC01EE0FFF1F8E0FF9
:100440009F1FFC01ED5EFD4F808161E08F730E9474
:10045000CC0DFF91EF91BF91AF919F918F917F91C3
:100460006F915F914F913F912F910F900FBE0F9021
:100470001F9018958EBD00000DB407FEFDCF8EB500
:1004800008951F920F920FB60F9211242F933F934E
:100490004F935F936F937F938F939F93AF93BF938C
:1004A000EF93FF938091B900887F803609F49CC058
:1004B00068F5883209F45BC090F4803109F454C0C7
:1004C00038F4882309F4F6C0883009F44DC0F6C02A
:1004D000883109F44CC0803209F45DC0EFC080342B
:1004E00009F468C048F4803309F455C0883309F032
:1004F000E5C080939B03D8C0803509F44FC0883590
:1005000009F45DC0883409F0D9C0D6C0883909F42F
:10051000C7C0A8F4883709F467C038F4883609F4EE
:1005200063C0803709F460C0C9C0883809F4B8C016
:10053000803909F45FC0803809F0C0C05BC0803BDF
:1005400009F486C038F4803A09F466C0883A09F4A0
:100550007FC0B4C0803C09F4A7C0883C09F4A4C0A3
:10056000883B09F48AC0AAC08091780310C090919A
:100570009A0380919903981770F5E0919A0381E0AE
:100580008E0F80939A03F0E0E758FC4F80818093B0
:10059000BB0085EC86C080939B038EC0E0919A03DC
:1005A00081E08E0F80939A038091BB00F0E0E758C2
:1005B000FC4F808390919A03809199036EC0E091E3
:1005C0009A0381E08E0F80939A038091BB00F0E044
:1005D000E758FC4F808380919C0381116DC081E0BE
:1005E0008093770384EA61C083E080939D03109237
:1005F0002403CFCF80912403803208F051C0E091D2
:10060000240381E08E0F809324038091BB00F0E0EF
:10061000EC5FFC4F8083BDCF85EC8093BC001092D3
:100620009D0380912403803230F4E0912403F0E0B4
:10063000EC5FFC4F10826091240370E0E0910203B4
:10064000F091030384E093E009951092240336C0EF
:1006500084E080939D031092010310920003E091C7
:10066000FE02F091FF02099580910003811105C0FF
:1006700081E0809300031092DE02E091010381E0AB
:100680008E0F80930103F0E0E252FD4F8081809352
:10069000BB009091010380910003981708F479CF73
:1006A00085E88093BC000AC085EC8093BC00109262
:1006B0009D0304C010929B030E94BC00FF91EF9128
:1006C000BF91AF919F918F917F916F915F914F916A
:1006D0003F912F910F900FBE0F901F9018952F9262
:1006E0003F924F925F926F927F928F929F92AF92C2
:1006F000BF92CF92DF92EF92FF920F931F93CF930F
:10070000DF9300D000D01F92CDB7DEB708E010E035
:1007100084E2482E84EF582E612C712C0E94CE2941
:1007200027E030E040E050E00E942D2C660F771F5C
:10073000FB01EF56FE4F208031808091790180319E
:1007400029F4E2EEF0E0F491FD837BC08F3F09F0E5
:10075000B1C180E180937901E2EEF0E084918F3FB6
:1007600009F4A8C1813019F1823009F444C0811123
:1007700067C014BC15BC84B5826084BD85B581603A
:1007800085BDE7E0F1E08491E82FF0E0EE0FFF1F78
:10079000ED51FF4F859194919093B5028093B402EF
:1007A000EBE1F1E084918093B3021D824DC0109281
:1007B0008000109281008091810088608093810088
:1007C00080918100816080938100E7E0F1E0849175
:1007D000E82FF0E0EE0FFF1FED51FF4F8591949150
:1007E0009093B2028093B102EBE1F1E084918093A7
:1007F000B002F1E023C01092B0001092B1008091DD
:10080000B00082608093B0008091B10081608093DD
:10081000B100E7E0F1E08491E82FF0E0EE0FFF1F78
:10082000ED51FF4F85919491909328038093270376
:10083000EBE1F1E0849180932903F2E0FD8304C0B1
:100840008D832D8127FD36C161E080E10E949F0EDE
:100850004101A12CB12C8D818D7F09F0B9C060E0E0
:1008600079E08DE390E0A50194010E942D2C29836D
:100870003A834B835C8369017A0181E0C81AD1080D
:10088000E108F1089FEFC916D104E104F10409F071
:1008900008F44BC060E271EA87E090E0A5019401A2
:1008A0000E942D2C69017A01E1E0CE1AD108E108FD
:1008B000F108FD81F23001F52FEFC216D104E104F9
:1008C000F10409F008F478C168E478EE81E090E082
:1008D000A50194010E942D2C69017A0181E0C81ABA
:1008E000D108E108F1089FEFC916D104E104F10431
:1008F00009F0D0F583E065C0EFEFCE16D104E10436
:10090000F104A9F0A0F0C301B201A50194010E9475
:100910002D2C69017A01F1E0CF1AD108E108F10824
:100920002D81222309F426C11CC181E001C082E08F
:100930002D812223A1F045C089819A81AB81BC81A0
:100940002AE0B595A795979587952A95D1F76C01DB
:100950007D0121E0C21AD108E108F10885E095B5D2
:10096000987F892B85BD62C0C301B201A5019401A6
:100970000E942D2C69017A0191E0C91AD108E10881
:10098000F108EFEFCE16D104E104F10409F008F408
:10099000B6C062E17AE780E090E0A50194010E9490
:1009A0002D2C69017A0181E0C81AD108E108F1080B
:1009B0009FEFC916D104E104F10411F008F0A1C0C1
:1009C00085E09091B100987F892B8093B1002EC073
:1009D00060E079E08DE390E0A50194010E942D2C68
:1009E00069017A0181E0C81AD108E108F108C1144F
:1009F000D10491E0E906F10478F0C301B201A50148
:100A000094010E942D2C69017A01E1E0CE1AD108EF
:100A1000E108F10893E001C091E0FD81F13031F48B
:100A200080918100887F892B809381009101220F22
:100A3000331FA0E5B0E00E94B82C28EE33E040E080
:100A400050E00E94962C8D81813099F0823019F10E
:100A5000811130C0C7BC2093BA023093BB024093CF
:100A6000BC025093BD0280916E00826080936E0044
:100A700021C0D0928900C09288002093B6023093A2
:100A8000B7024093B8025093B90280916F00826020
:100A900080936F000FC0C092B30020932A0330935D
:100AA0002B0340932C0350932D03809170008260A0
:100AB0008093700062E370E080E090E00E945F0F3E
:100AC00080E10E94180E0150110909F027CE0F9005
:100AD0000F900F900F900F90DF91CF911F910F917A
:100AE000FF90EF90DF90CF90BF90AF909F908F904E
:100AF0007F906F905F904F903F902F90089584E08B
:100B000060CF69E07DE380E090E0A50194010E9460
:100B10002D2C69017A01F1E0CF1AD108E108F10822
:100B20002FEFC216D104E104F104C9F0C0F08981AD
:100B30009A81AB81BC815AE0B595A7959795879529
:100B40005A95D1F76C017D01E1E0CE1AD108E10898
:100B5000F108FD81FF2309F401CF87E032CF86E061
:100B6000E7CE8FEFC816D104E104F10409F048F68E
:100B700084E0DECEFFEFCF16D104E104F104D1F022
:100B8000C8F069E07DE380E090E0A50194010E9457
:100B90002D2C69017A0191E0C91AD108E108F10808
:100BA000EFEFCE16D104E104F10411F008F0C4CE49
:100BB00084E0D5CE83E0D3CE82E003CF1F93CF93E2
:100BC000DF93182FEB0164E170E080E090E00E9479
:100BD0005F0F8EE78093A8028FEF8093A90286E0D3
:100BE0008093AA021093AB021092AC02D093AD0294
:100BF000C093AE028FEE8093AF02C8EAD2E01C2F02
:100C0000185F699181E794E00E94E50C1C13F9CF0D
:100C1000DF91CF911F910895EF920F931F936091F1
:100C2000840570E0EE24E39407E010E02FEF30E05D
:100C300040E050E089E395E00E94C212882351F021
:100C40000E94990F60933F0270934002809341028B
:100C50009093420280914302853071F06091820549
:100C600070E0E12C00E010E02FEF30E040E050E0D9
:100C700082E195E00E94C2121F910F91EF900895BA
:100C80001F93CF93DF93CDB7DEB728970FB6F894B5
:100C9000DEBF0FBECDBF80918A0590918B0520915C
:100CA0008C0530918D058217930719F061E00E9441
:100CB0009F0E80918C0590918D0520918A05309131
:100CC0008B052817390719F061E00E949F0E1FB7A6
:100CD000F8948091A702811127C0E1E0F1E08491AE
:100CE000E5E1F1E09491E82FF0E0EE0FFF1FEC5307
:100CF000FF4FA591B491EC91E92321F461E08AE0E2
:100D00000E94CC0D61E08AE00E949F0E8CB580614C
:100D10008CBD8CB580648CBD61E08DE00E949F0E1F
:100D200061E08BE00E949F0E8091A7028F5F80930D
:100D3000A7021FBF80918A0590918B0520918C0599
:100D400030918D058217930719F060E00E94CC0D59
:100D500081E00E94571565E070E080E090E00E941D
:100D60005F0F6CE080E00E9492156FE584E00E94C6
:100D7000921582E090E00E94F015882319F081E03E
:100D80008093900586E00E947B1580E090E00E94B1
:100D9000F0150E94781580E50E943A0283E70E94D0
:100DA0003A020E94751560E08DE10E94921560E0A4
:100DB0008CE10E9492151092920560E787E00E94F4
:100DC00092156CE485E00E9492150E94781582EEDF
:100DD0000E943A020E9475150E94781581EE0E94C9
:100DE0003A020E9475150E94DF1580E00E947B1573
:100DF000682F6E7F80E00E949215E0911202F0E071
:100E0000EC57FE4F60816E3708F06DE785E00E9479
:100E1000921586E00E947B15887F682F656086E0CA
:100E20000E94921582E090E00E94F0158DE10E94F0
:100E30007B15682F66608DE10E9492158CE10E94FF
:100E40007B15682F63608CE10E94921511E010936E
:100E500092058DE10E947B15682F64608DE10E94F0
:100E600092158CE10E947B15682F6F638CE10E94C4
:100E700092151093920565E584E00E94921581EB2E
:100E8000898380EF8A838B8388EE8C8389EE8D83C0
:100E90001E821F821886E9EBF0E08491409198054C
:100EA000BE016F5F7F4F0E94AF15E3EBF0E08491CE
:100EB000609191050E94921582E00E947B15EFEBF4
:100EC000F0E0E49161E070E001C0660FEA95EAF7B6
:100ED000682B82E00E9492150E94DF1580E00E943C
:100EE0007B15682F616080E00E94921560E787E0C3
:100EF0000E94921580918A0590918B0520918C0516
:100F000030918D058217930719F061E00E94CC0D96
:100F100080919305882341F04091980563E975E03D
:100F20008AE00E94AF1512C082E00E947B15EEEBB2
:100F3000F0E0E49121E030E001C0220FEA95EAF709
:100F40002095622F682382E00E9492158DE10E9415
:100F50007B1581FF07C00E94781581EE0E943A023E
:100F60000E94751528960FB6F894DEBF0FBECDBF50
:100F7000DF91CF911F910895CF9381E080939E03DD
:100F800088E68093C00310929F031092C1038BE305
:100F900090E00E9452150E94C41680919D03811119
:100FA000FCCF81E080939D0380939C039FEF9093FF
:100FB0009B0310929A039DE090939903809378038A
:100FC00080917803806D80937803809177038130DE
:100FD00061F410927703809178038093BB00809135
:100FE000BC0083FDF8CF85EC01C085EE8093BC008A
:100FF00080919D038130E1F380919A038E3018F443
:1010000080919A0301C08EE0A9E7B3E02EEB32E0B5
:10101000F9019E2F921B981718F49D919193F9CF87
:101020001092FF018093FE018E30F0F38FE594E083
:101030000E94FE00C82F8FE594E00E94FE0020E091
:1010400030E03C2F822B932B092E000CAA0BBB0BFC
:101050008093970290939802A0939902B0939A027A
:101060008FE594E00E94FE00C82F8FE594E00E9477
:10107000FE0020E030E03C2F822B932B092E000C49
:10108000AA0BBB0B80938F0290939002A0939102C6
:10109000B09392028FE594E00E94FE00C82F8FE586
:1010A00094E00E94FE0020E030E03C2F822B932B46
:1010B000092E000CAA0BBB0B809387029093880229
:1010C000A0938902B0938A028FE594E00E94FE000B
:1010D000C82F8FE594E00E94FE0020E030E03C2F16
:1010E000822B932B90937902809378028FE594E082
:1010F0000E94FE00C82F8FE594E00E94FE0020E0D1
:1011000030E03C2F822B932B90930D0280930C02A6
:101110008FE594E00E94FE00C82F8FE594E00E94C6
:10112000FE0020E030E03C2F822B932B90930702AF
:10113000809306028FE594E00E94FE00C82F8FE5A1
:1011400094E00E94FE0020E030E03C2F822B932BA5
:101150009093010280930002CF9108954F925F9285
:101160006F927F928F929F92AF92BF92CF92DF92B7
:10117000EF92FF920F931F93CF93DF93CDB7DEB71C
:101180002C970FB6F894DEBF0FBECDBF0E943A0F6A
:10119000C090A302D090A402E090A502F090A60215
:1011A000DC01CB018C199D09AE09BF0980349F4138
:1011B000A105B10508F413C20E943A0F6093A3027F
:1011C0007093A4028093A5029093A6020E94BC078C
:1011D00060910C0270910D0280910E0290910F02AD
:1011E000681B790B70930D0260930C02C09006028D
:1011F000D09007028091080290910902C81AD90A7A
:10120000D0920702C0920602E0900002F090010224
:101210008091020290910302E81AF90AF092010209
:10122000E0920002072E000C880B990B0E94102BF5
:101230002EEA3EE040E05AE30E946F2B20913B02F1
:1012400030913C0240913D0250913E020E94B726EF
:101250006D837E838F83988760933B0270933C02FB
:1012600080933D0290933E02B601DD0C880B990BF2
:101270000E94102B2EEA3EE040E05AE30E946F2BC2
:1012800020919F023091A0024091A1025091A202B0
:101290000E94B72669877A878B879C8760939F0215
:1012A0007093A0028093A1029093A202B701FF0C59
:1012B000880B990B0E94102B2EEA3EE040E05AE387
:1012C0000E946F2B6093370270933802809339022B
:1012D00090933A0280914302843009F080C12091BA
:1012E0009B0230919C0240919D0250919E02A9E088
:1012F000B0E00E944C2C009197021091980220912E
:10130000990230919A02600F711F821F931F2AE089
:10131000C22ED12CE12CF12CA70196010E942D2C7C
:1013200049015A0120939B0230939C0240939D02F5
:1013300050939E0220919302309194024091950225
:1013400050919602A9E0B0E00E944C2C00918F02CF
:10135000109190022091910230919202600F711FC2
:10136000821F931FA70196010E942D2C29013A018B
:1013700020939302309394024093950250939602E7
:1013800020918B0230918C0240918D0250918E02FF
:10139000A9E0B0E00E944C2C0091870210918802D5
:1013A0002091890230918A02600F711F821F931F62
:1013B000A70196010E942D2C29833A834B835C83DD
:1013C00020938B0230938C0240938D0250938E02B7
:1013D000A5019401C501B4010E946C266B017C013A
:1013E000A3019201C301B2010E946C26C60ED71E52
:1013F000E81EF91E29813A814B815C81CA01B9013D
:101400000E946C266C0D7D1D8E1D9F1D0E94102B51
:101410000E944C280E94B0276B017C0160938302DC
:10142000709384028093850290938602C20157FED6
:1014300004C08827992784199509092E000CAA0B46
:10144000BB0B8C159D05AE05BF0504F5C301B201AC
:101450000E94102B2B013C01C701B6010E94102BEA
:101460009B01AC01C301B2010E943E270E942327C9
:101470002BE13FE245E652E40E946F2B60937F022E
:10148000709380028093810290938202C40197FE40
:1014900004C08827992788199909092E000CAA0BDE
:1014A000BB0B8C159D05AE05BF0504F5C501B40148
:1014B0000E94102B2B013C01C701B6010E94102B8A
:1014C0009B01AC01C301B2010E943E270E94232769
:1014D0002BE13FE245E652EC0E946F2B60937B02CA
:1014E00070937C0280937D0290937E0280917A02B9
:1014F000882309F451C024EA30E74DE75FE36D81AA
:101500007E818F8198850E946F2B6B017C012AE080
:1015100037ED43E25CE360917F027091800280913D
:101520008102909182020E946F2B9B01AC01C70146
:10153000B6010E94B72660933B0270933C028093F1
:101540003D0290933E0224EA30E74DE75FE3698570
:101550007A858B859C850E946F2B6B017C012AE02C
:1015600037ED43E25CE360917B0270917C028091F5
:101570007D0290917E020E946F2B9B01AC01C701FE
:10158000B6010E94B72660939F027093A0028093D9
:10159000A1029093A20223C080917F0290918002C9
:1015A000A0918102B091820280933B0290933C0211
:1015B000A0933D02B0933E0280917B0290917C0209
:1015C000A0917D02B0917E0280939F029093A00231
:1015D000A093A102B093A20281E080937A022C969C
:1015E0000FB6F894DEBF0FBECDBFDF91CF911F9134
:1015F0000F91FF90EF90DF90CF90BF90AF909F90B2
:101600008F907F906F905F904F9008952F923F92B0
:101610004F925F926F927F928F929F92AF92BF9202
:10162000CF92DF92EF92FF920F931F93CF93DF93AE
:10163000CDB7DEB72E970FB6F894DEBF0FBECDBF85
:101640009E878D878C01085D1F4FCB01770FAA0BFA
:10165000BB0B89879A87AB87BC8769857A858B8521
:101660009C850E94102B6B017C01AD85BE852D9061
:101670003D904D905C90A20191010E94412887FD10
:101680004EC0ED85FE8580849184A284B384A5013B
:101690009401C701B6010E94092B18160CF43FC033
:1016A000AD85BE8514968D919D910D90BC91A02D18
:1016B00089839A83AB83BC83ED85FE85248535853C
:1016C00046855785BC01CD010E94B6266D837E8379
:1016D0008F839887A5019401C201B1010E94B626AB
:1016E0009B01AC016D817E818F8198850E943E2790
:1016F0004B015C01A2019101C701B6010E94B6260F
:101700009B01AC01C501B4010E946F2B29813A8174
:101710004B815C810E94B7260E94B0273B018D85DA
:101720009E8508969E878D878017910709F095CF33
:10173000C3012E960FB6F894DEBF0FBECDBFDF916A
:10174000CF911F910F91FF90EF90DF90CF90BF90BE
:10175000AF909F908F907F906F905F904F903F9051
:101760002F9008958EE480937C0084EE93E001979F
:10177000F1F780917A00806480937A0080917A00FA
:1017800086FDFCCF209178008091790030E0382BE5
:10179000032E000C440B550B64EB7BE281E190E0DF
:1017A0000E942D2CCA01B9010895CF92DF92EF92C9
:1017B000FF920F931F93CF93DF936C017A018B01FC
:1017C000C0E0D0E0CE15DF0589F0D8016D918D0124
:1017D000D601ED91FC910190F081E02DC6010995B3
:1017E000892B11F47E0102C02196ECCFC701DF9155
:1017F000CF911F910F91FF90EF90DF90CF900895C0
:10180000FC01918D828D981761F0828DDF01A80F08
:10181000B11D5D968C91928D9F5F9F73928F90E02A
:1018200008958FEF9FEF0895FC01918D828D981799
:1018300031F0828DE80FF11D858D90E008958FEFD6
:101840009FEF0895FC01918D228D892F90E0805C9F
:101850009F4F821B91098F739927089582EC93E023
:101860000E94220C21E0892B09F420E0822F0895A8
:10187000FC01848DDF01A80FB11DA35ABF4F2C912D
:10188000848D90E001968F739927848FA689B789FC
:101890002C93A089B1898C9180648C93938D848DD5
:1018A000981306C00288F389E02D80818F7D8083A4
:1018B0000895EF92FF920F931F93CF93DF93EC0164
:1018C00081E0888F9B8D8C8D981305C0E889F989FC
:1018D000808185FD24C0F62E0B8D10E00F5F1F4F19
:1018E0000F731127E02E8C8DE8120CC00FB607FC89
:1018F000FACFE889F989808185FFF5CFCE010E9472
:10190000380CF1CF8B8DFE01E80FF11DE35AFF4F2C
:10191000F0820B8FEA89FB898081806207C0EE89A3
:10192000FF896083E889F98980818064808381E010
:1019300090E0DF91CF911F910F91FF90EF9008956C
:10194000CF93DF93EC01888D8823C9F0EA89FB8966
:10195000808185FD05C0A889B9898C9186FD0FC05D
:101960000FB607FCF5CF808185FFF2CFA889B98932
:101970008C9185FFEDCFCE010E94380CE7CFDF912F
:10198000CF91089580E090E0892B29F00E942E0CE1
:1019900081110C94000008952091FC013091FD010B
:1019A0002817390771F49091FA018091FB0198177B
:1019B00041F0E091FA01F0E0E25DFC4F808190E0BF
:1019C00008958FEF9FEF089508951F93CF93DF93AE
:1019D000DC015C962D913C915D972115310539F420
:1019E00081E090E013969C938E9312973DC05196A0
:1019F000ED91FC91529750969C915097892F80952C
:101A00001FB75E964C915E9741FB772770F941FDB9
:101A10006095F8944081772311F0492B01C0482349
:101A20004083E9012197F1F748E0508160FF02C04F
:101A3000592B01C058235083E9012197F1F766958E
:101A4000415099F7772321F090818923808303C047
:101A50008081982B90831FBF5C968D919C915D97A0
:101A60000197F1F721E030E0C901DF91CF911F919B
:101A700008952091FC013091FD012817390771F478
:101A80008091FB012091FA0190E0805C9F4F821BC6
:101A9000910960E470E00E948826089580E090E05B
:101AA00008952091FC013091FD0128173907B9F400
:101AB0009091FA018091FB01981789F0E091FA0169
:101AC000F0E0E25DFC4F80812091FA0130E02F5F71
:101AD0003F4F2F7333272093FA0190E008958FEF43
:101AE0009FEF08950E946B291F920F920FB60F92DD
:101AF00011242F933F934F935F936F937F938F9313
:101B00009F93AF93BF93EF93FF9382EC93E00E9478
:101B1000380CFF91EF91BF91AF919F918F917F9181
:101B20006F915F914F913F912F910F900FBE0F904A
:101B30001F9018951F920F920FB60F9211242F939A
:101B40008F939F93EF93FF93E091D203F091D30390
:101B50008081E091D803F091D90382FD12C0908179
:101B60008091DB038F5F8F732091DC03821751F02C
:101B7000E091DB03F0E0EE53FC4F958F8093DB03A5
:101B800001C08081FF91EF919F918F912F910F90D4
:101B90000FBE0F901F90189590E0FC01E253FF4F8D
:101BA0003491FC01E55FFE4F2491FC01E950FF4FA9
:101BB000E491EE2309F43BC0332339F1333091F043
:101BC00038F43130A9F0323001F584B58F7D12C080
:101BD000373091F03830A1F03430B9F48091800082
:101BE0008F7D03C0809180008F77809380000DC02F
:101BF00084B58F7784BD09C08091B0008F7703C012
:101C00008091B0008F7D8093B000F0E0EE0FFF1F59
:101C1000ED51FF4FA591B4918FB7F894EC916111FC
:101C200003C020952E2301C02E2B2C938FBF089527
:101C300090917901981324C0E2EEF0E0E4919FEFD7
:101C400090937901E130B9F098F0E230C9F49091C5
:101C500070009D7F9093700091E09093B000909100
:101C6000B100987F94609093B1001092B30008C0C7
:101C700010926E0005C090916F009D7F90936F0051
:101C800060E00C94CC0D1F920F920FB60F921124AE
:101C90002F933F934F935F936F937F938F939F9374
:101CA000AF93BF93EF93FF9380912A0390912B03FF
:101CB000A0912C03B0912D03892B8A2B8B2B51F1F2
:101CC00080912903E0912703F091280390818927CF
:101CD000808380912A0390912B03A0912C03B091D3
:101CE0002D03181619061A061B06C4F480912A0340
:101CF00090912B03A0912C03B0912D030197A10982
:101D0000B10980932A0390932B03A0932C03B093E3
:101D10002D0304C0809179010E94180EFF91EF916C
:101D2000BF91AF919F918F917F916F915F914F91F3
:101D30003F912F910F900FBE0F901F901895CF934A
:101D4000DF9390E0FC01E55FFE4F2491FC01E95038
:101D5000FF4F8491882361F190E0880F991FFC0167
:101D6000EC53FF4FC591D491FC01ED51FF4FA5916C
:101D7000B491611109C09FB7F8948881209582239E
:101D80008883EC912E230BC0623061F49FB7F894E6
:101D90003881822F809583238883EC912E2B2C937E
:101DA0009FBF06C08FB7F894E8812E2B28838FBF82
:101DB000DF91CF9108951F93CF93DF93182FEB01FD
:101DC00061E00E949F0E209711F460E004C0CF3FB5
:101DD000D10539F461E0812FDF91CF911F910C94EF
:101DE000CC0DE12FF0E0E253FF4FE491E330F9F046
:101DF00048F4E130B9F0E230A1F584B5806284BDE9
:101E0000C8BD34C0E730E9F0E83019F1E43049F5F5
:101E100080918000806280938000D0938B00C0937B
:101E20008A0024C084B5806884BDC7BD1FC080916E
:101E30008000806880938000D0938900C0938800E0
:101E400015C08091B00080688093B000C093B3004B
:101E50000DC08091B00080628093B000C093B40048
:101E600005C0C038D1050CF0B5CFAFCFDF91CF9111
:101E70001F9108953FB7F894809173039091740374
:101E8000A0917503B091760326B5A89B05C02F3F9E
:101E900019F00196A11DB11D3FBFBA2FA92F982F90
:101EA0008827820F911DA11DB11DBC01CD0143E00A
:101EB000660F771F881F991F4A95D1F708958F9253
:101EC0009F92AF92BF92CF92DF92EF92FF926B01FF
:101ED0007C010E943A0F4B015C01C114D104E10462
:101EE000F104F1F00E943A0FDC01CB018819990945
:101EF000AA09BB09883E9340A105B10570F321E012
:101F0000C21AD108E108F10888EE880E83E0981E15
:101F1000A11CB11CC114D104E104F10419F7DDCFF7
:101F2000FF90EF90DF90CF90BF90AF909F908F90F9
:101F300008952FB7F89460916F03709170038091AA
:101F40007103909172032FBF08951F920F920FB6E5
:101F50000F9211242F933F938F939F93AF93BF932F
:101F600080916F0390917003A0917103B0917203FF
:101F700030916E0326E0230F2D3720F40296A11D29
:101F8000B11D05C029E8230F0396A11DB11D2093A3
:101F90006E0380936F0390937003A0937103B093CB
:101FA00072038091730390917403A0917503B091B3
:101FB00076030196A11DB11D809373039093740362
:101FC000A0937503B0937603BF91AF919F918F91CA
:101FD0003F912F910F900FBE0F901F9018951F9259
:101FE0000F920FB60F9211242F933F934F935F934D
:101FF0006F937F938F939F93AF93BF93EF93FF93D1
:10200000E091FC01F091FD01309709F451C0968DEB
:10201000A685B785858591FF04C09C91892329F405
:1020200047C09C91892309F043C0A389B4899C913E
:102030008589809589238C93868997890197F1F703
:10204000608D718DA685B785558538E020E0CB0180
:102050000197F1F7822F90E095958795282F4C9165
:10206000452309F02068315091F7868D81FD209538
:102070008091FB0190E001968F7399273091FA01CE
:10208000381749F0A091FB01B0E0A25DBC4F2C9342
:102090008093FB0103C0868D8160868F828D938D36
:1020A0000197F1F7A389B4899C918589892B8C9339
:1020B000FF91EF91BF91AF919F918F917F916F9120
:1020C0005F914F913F912F910F900FBE0F901F90F6
:1020D0001895E091FC01F091FD01E817F90769F40A
:1020E000A389B4899C918589809589238C931092CA
:1020F000FD011092FC0181E0089580E008952F9287
:102100003F924F925F926F927F928F929F92AF9287
:10211000BF92CF92DF92EF92FF920F931F93CF93D4
:10212000DF93CDB7DEB728970FB6F894DEBF0FBEAA
:10213000CDBF1C012A013B0109831A832B833C83F9
:10214000DC015B96BC92AE925A9781E0AA94AB28D0
:1021500009F080E0F10183AF408251826282738294
:1021600089819A81AB81BC8184839583A683B7835F
:10217000C086D186E286F38666A577A580A991A957
:102180000E940E2B20E030E04AE754E40E943E27F4
:102190006D837E838F839887F1014486558666869A
:1021A00077869B01AC0169817A818B819C810E9439
:1021B0006F2B4B015C01D10150966D937D938D93F4
:1021C0009C9353972D813E814F815885C701B6015D
:1021D0000E943E276B017C01F101648B758B868B1D
:1021E000978B808D918D019741F5A301920160E05D
:1021F00070E0CB010E94B626D1011C966D937D93B1
:102200008D939C931F97A501940160E070E0CB0132
:102210000E94B626F101608B718B828B938BA70194
:10222000960160E070E0CB010E94B626D101549681
:102230006D937D938D939C93579728960FB6F89442
:10224000DEBF0FBECDBFDF91CF911F910F91FF90E9
:10225000EF90DF90CF90BF90AF909F908F907F9046
:102260006F905F904F903F902F9008952F923F92E4
:102270004F925F926F927F928F929F92AF92BF9296
:10228000CF92DF92EF92FF920F931F93CF93DF9342
:10229000CDB7DEB72F970FB6F894DEBF0FBECDBF18
:1022A0009F878E870E94990F6D837E838F83988787
:1022B000EE85FF8582A193A1A4A1B5A14D815E8188
:1022C0006F817885481B590B6A0B7B0B86A597A5F8
:1022D000A0A9B1A9481759076A077B0708F40AC1E2
:1022E000248D358DD9018D919D910D90BC91A02D9E
:1022F00089839A83AB83BC8300A0F1A1E02D9C016C
:10230000AD0160817181828193810E94B6264B016B
:102310005C01EE85FF8522A533A544A555A56981FD
:102320007A818B819C810E94B6266B017C01AE85EF
:10233000BF8550962D913D914D915C915397C5016C
:10234000B4010E946F2BEE85FF8526A137A140A521
:1023500051A50E94B7262B013C01AE85BF859696FC
:102360006D937D938D939C939997DB96BC91B987E0
:10237000B11118C0EE85FF852485358546855785C2
:10238000C701B6010E946F2B9B01AC01C301B201D2
:102390000E94B626AE85BF8596966D937D938D93EC
:1023A0009C939997EE85FF8546A057A060A471A4E1
:1023B00016A907A930AC21AC212F302F432D522D67
:1023C000C301B2010E94412818162CF4812F902FCE
:1023D000A32DB22D18C0AE85BF85D2968D919D914B
:1023E0000D90BC91A02D8A879B87AC87BD879C01EF
:1023F000AD01C301B2010E94092B87FF0AC08A8583
:102400009B85AC85BD85EE85FF8586A397A3A0A798
:10241000B1A7F985FF2379F0AE85BF851C962D9174
:102420003D914D915C911F97C501B4010E946F2BA6
:102430004B015C0103C0812C912C5401EE85FF857A
:102440002489358946895789C701B6010E946F2BB7
:102450009B01AC01AE85BF8596966D917D918D9166
:102460009C9199970E94B6269B01AC01C501B401CD
:102470000E94B7266B017C01212F302F432D522D56
:102480000E9441281816A4F0EE85FF8512A903A921
:1024900034A825A8212F302F432D522DB601C70176
:1024A0000E94092B87FD04C01C2D0D2D3E2C2F2CC6
:1024B000AE85BF855E96ED91FC915F97812F902F41
:1024C000A32DB22D80839183A283B38389819A81C6
:1024D000AB81BC81EE85FF8582A793A7A4A7B5A792
:1024E0008D819E81AF81B88582A393A3A4A3B5A358
:1024F00081E001C080E02F960FB6F894DEBF0FBEDA
:10250000CDBFDF91CF911F910F91FF90EF90DF90A2
:10251000CF90BF90AF909F908F907F906F905F9083
:102520004F903F902F9008950F931F93CF93DF9379
:10253000EC010E94990F2DA1222319F02CA1211149
:102540000AC02EA1222319F02BA1211104C06E8FE5
:102550007F8F88A399A30E8D1F8D28A139A1DC013F
:10256000CB01801B910BA20BB30B21E084369105AC
:10257000A105B10508F420E0822FDF91CF911F91D2
:102580000F9108958F929F92AF92BF92CF92DF9258
:10259000EF92FF920F931F93CF93DF93EC017F870E
:1025A0006E875B8B4A8B3D8B2C8B1F8B0E8BE88E43
:1025B000898D882361F1C884D9840D2C000CEE0824
:1025C000FF088E809F80092C000CAA08BB08CB0155
:1025D000770FAA0BBB0B9C01AD01281939094A09D9
:1025E0005B09C501B4016C197D098E099F090E9420
:1025F0006C26A7019601281939094A095B090E942E
:102600002D2CC20ED31EE41EF51EDF86CE861016BC
:1026100011060CF041C00E94990FAB01BC018A8DDC
:102620009B8DAC8DBD8D8A019B01081B190B2A0B5C
:102630003B0B8E899F89092E000CAA0BBB0B081738
:1026400019072A073B0770F12E853F8588899989EC
:10265000821793075CF42885398582179307ACF4B9
:102660000196998B888B81E08DA310C028173907BC
:1026700064F42E813F81281739073CF40197998B28
:10268000888B1DA281E08EA302C01DA21EA24A8FCC
:102690005B8F6C8F7D8F06C08E859F85998B888B15
:1026A0001DA21EA2888999892C853D8582179307D2
:1026B0000CF449C061E088810E94CC0D60E08A8101
:1026C0000E94CC0DCA88DB880D2C000CEE08FF0898
:1026D0008C849D84092C000CAA08BB0828893989A0
:1026E000C901330FAA0BBB0B9C01AD012819390995
:1026F0004A095B096C897D89CB01770FAA0BBB0B5B
:10270000BC01CD016C197D098E099F090E946C26C0
:10271000288539858901330F220B330BA9019801D4
:10272000281939094A095B090E942D2CCA01B901EF
:102730006C0D7D1D8E1D9F1D8C810E94DB0E81E026
:102740008BA31CA268C02A853B85281739070CF487
:1027500049C060E088810E94CC0D61E08A810E94BE
:10276000CC0DCA88DB880D2C000CEE08FF088A848B
:102770009B84092C000CAA08BB0828893989C90147
:10278000330FAA0BBB0B9C01AD01281939094A096B
:102790005B096C897D89CB01770FAA0BBB0BBC0150
:1027A000CD016C197D098E099F090E946C262E812E
:1027B0003F818901330F220B330BA901980128199E
:1027C00039094A095B090E942D2CCA01B9016C0D17
:1027D0007D1D8E1D9F1D8C810E94DB0E1BA281E042
:1027E0008CA319C0888D882339F061E088810E940C
:1027F000CC0D61E08A810AC060E088810E94CC0D26
:1028000060E08A810E94CC0D61E08C810E94CC0D39
:102810001BA21CA280E0DF91CF911F910F91FF902E
:10282000EF90DF90CF90BF90AF909F908F900895E2
:10283000FC01108E118A108A818D882311F061E0CD
:1028400001C060E080810C94CC0DFC01108E118AD7
:10285000108A818D882311F060E001C061E08081E1
:102860000C94CC0DCF93DF93EC01862F6883798392
:1028700061E00E949F0E898D882311F061E001C004
:1028800060E08881DF91CF910C94CC0DCF92DF92E4
:10289000EF92FF92CF93DF93EC01603282E07807F2
:1028A0000CF03DC077FD06C0653B71052CF064EB74
:1028B00070E002C060E070E0898128E830E06901E2
:1028C000C81AD10887FDD394CC0CDD1CCC0CDD1CC0
:1028D0000D2C000CEE08FF088A8128E532E0281B49
:1028E000310987FD3395220F331F220F331FC90192
:1028F000330FAA0BBB0B9C01AD012C193D094E09EE
:102900005F09DB010E94572C24EB30E040E050E0EF
:102910000E942D2CC20ED31EE41EF51EB601888126
:102920008C3070F5998148E850E0491B510997FDBA
:102930005395440F551F440F551F6417750784F0B6
:102940009A8128E532E0291B310997FD3395220F42
:10295000331F220F331FAB01261737070CF4A901D1
:102960002FB7F89490E042505109FC01EE0FFF1F81
:102970008E0F9F1FFC01ED5EFD4F528341832FBFE1
:10298000DF91CF91FF90EF90DF90CF9008951F934C
:10299000CF93DF93EC01162F88818C3008F04EC066
:1029A00061E0812F0E949F0E8881E82FF0E09F0157
:1029B000220F331FE20FF31FED5EFD4F1F73908157
:1029C000907C192B108319821A826CE00E947C265D
:1029D0009CE0899FB001112440E050E09A01260F4D
:1029E000371FF901EE0FFF1F2E0F3F1FF901ED5E9C
:1029F000FD4F908196FD16C04F5F5F4F4C305105E3
:102A000069F781110FC01092800082E080938100ED
:102A10001092850010928400B19A80916F008260BC
:102A200080936F00E881F0E0CF01880F991FE80FD5
:102A3000F91FED5EFD4F8081806480838881DF9186
:102A4000CF911F910895FC01909126039C30A0F432
:102A500081E0890F809326039083892F90E0FC0109
:102A6000EE0FFF1F8E0F9F1FFC01ED5EFD4F8CEDE3
:102A700095E09283818308958FEF8083089587E4A2
:102A800080937C0080917A00806480937A008091AA
:102A90007A0086FDFCCF809178002091790090E04B
:102AA000922B0895682F8FE594E00C944A019CB511
:102AB0009F7D9CBD9CB5937F9CBD9CB59C7F9CBD20
:102AC0009DB591609DBD682F80918C050E94CC0DB5
:102AD00080919E0590919F058330910528F0880F85
:102AE000991F04970197F1F7089581E00C94571509
:102AF00080E00C945715CF93DF931F92CDB7DEB7CC
:102B000089830E94781589818F710E943A028FEF24
:102B10000E943A0289830E94751589810F90DF9186
:102B2000CF9108951F93CF93DF9300D0CDB7DEB739
:102B30006A8389830E94781589818F7180620E94DF
:102B40003A02182F6A81862F0E943A020E94751558
:102B5000812F0F900F90DF91CF911F910895EF92E9
:102B6000FF920F931F93CF93DF9300D01F92CDB7A7
:102B7000DEB7162F4A837B8389830E94781589816B
:102B80008F7180620E943A02082FE12E7B81F72E1E
:102B90004A81140F1E1531F0F70181917F010E94C7
:102BA0003A02F8CF0E947515802F0F900F900F906A
:102BB000DF91CF911F910F91FF90EF90089580E0EA
:102BC0000E947B1581FD0BC0682F626080E00E942F
:102BD000921565E070E080E090E00C945F0F08953E
:102BE0000F931F93CF938C0186E00E947B15C82F13
:102BF000C77D0230110531F4C0628BE990E0A0E09E
:102C0000B0E00DC00130110529F085E590E0A0E0AD
:102C1000B0E005C0C86081E490E0A0E0B0E080933F
:102C20009A0590939B05A0939C05B0939D056C2FEE
:102C300086E00E94921586E00E947B1591E08C133D
:102C400090E0892FCF911F910F910895CF92DF923D
:102C5000EF92FF920F931F93CF93DF93EC014A8380
:102C60005B836C837D830E831F83288739871A8655
:102C70001B861C861D861F861E860E94990F6B016F
:102C80007C01E88D8E2F90E08730910508F073C0AD
:102C9000FC01EC5CFF4F0C949C2681E058C0898DB0
:102CA000882311F060E001C061E088810E94CC0DB2
:102CB000888999890196998B888BCC8ADD8AEE8ADE
:102CC000FF8A82E044C08C899D89AE89BF89C81A79
:102CD000D90AEA0AFB0A8A819B81AC81BD81C816A8
:102CE000D906EA06FB0608F446C083E030C0898DA9
:102CF000882311F061E001C060E088810E94CC0D62
:102D0000CC8ADD8AEE8AFF8A84E021C08C899D8985
:102D1000AE89BF89C81AD90AEA0AFB0A8E819F8147
:102D2000A885B985C816D906EA06FB0620F185E014
:102D30000EC0288939898E859F8528173907D4F0D8
:102D4000198A188ACC8ADD8AEE8AFF8A86E0888F03
:102D500012C08C899D89AE89BF89C81AD90AEA0A2E
:102D6000FB0A8A859B85AC85BD85C816D906EA060F
:102D7000FB0608F0188EDF91CF911F910F91FF9005
:102D8000EF90DF90CF9008952091C1039091C00300
:102D9000213208F04AC080919D038111FCCF32E0BE
:102DA00030939D0331E030939C033FEF30939B03BE
:102DB00010929A0320939903A0EAB3E049E753E005
:102DC000FA013E2F341B321718F43D913193F9CF9D
:102DD0001092780320917803990F922B90937803A7
:102DE00090917703913061F410927703909178037A
:102DF0009093BB009091BC0093FDF8CF95EC01C07F
:102E000095EE9093BC0090919D039230E1F39091E8
:102E10009B039F3F79F080919B03803241F080912A
:102E20009B03803331F084E005C081E003C082E081
:102E300001C083E010929F031092C10310929E0381
:102E40000895CF93DF93009779F0FC010190002063
:102E5000E9F73197AF01481B590BBC0182EC93E0B5
:102E60000E94D50BEC0102C0C0E0D0E042E050E08F
:102E700067EF71E082EC93E00E94D50B8C0F9D1FF1
:102E8000DF91CF910895CF93DF9300D000D000D091
:102E9000CDB7DEB7789484B5826084BD84B5816097
:102EA00084BD85B5826085BD85B5816085BD809115
:102EB0006E00816080936E0010928100809181008D
:102EC0008260809381008091810081608093810085
:102ED000809180008160809380008091B100846047
:102EE0008093B1008091B00081608093B0008091A8
:102EF0007A00846080937A0080917A008260809367
:102F00007A0080917A008E7F80937A0080917A0097
:102F1000806880937A001092C10082EC93E00E9456
:102F2000A00CE091D403F091D50380818F7E808343
:102F3000E091D403F091D5038081877F8083E09175
:102F4000D403F091D50380818F778083E091D403FF
:102F5000F091D50380818F7D80838091DC03809305
:102F6000DB031092C10010928C0410928B0410921B
:102F70008A041092890410928804109287048DECC0
:102F800090E090938E0480938D0490917D0496310F
:102F900008F057C025E530E030938804209387047B
:102FA0002BEC30E030938A042093890420E930E050
:102FB00030938C0420938B0420916800983050F05B
:102FC00031E09E3008F430E081E001C0880F3A958E
:102FD000EAF701C084E0822B80936800983038F0D3
:102FE0009E3040F0963148F020E030E008C02DE6F9
:102FF00030E005C02BE630E002C02CE630E0309334
:10300000850420938404983030F481E001C0880F57
:103010009A95EAF70EC0292F30E09E3018F4285018
:10302000310902C02E50310981E001C0880F2A9574
:10303000EAF78093860480918D0490918E04019725
:10304000F1F780918B0490918C04892B21F1809170
:10305000FC019091FD0124E081379207E1F0009797
:1030600011F00E94691080918F048E7F80938F04ED
:103070001092FB011092FA0181E794E09093FD0118
:103080008093FC01E0918404F0918504908180910B
:103090008604892B808364EF71E080E090E00E94D9
:1030A0005F0F62E070E089E00E94DE0581ED91E053
:1030B0000E94211768EC70E080E090E00E945F0FB2
:1030C0006EE170E086E00E94DE0586EE91E00E94EF
:1030D0002117909043028CEF890D823010F41092EA
:1030E000770280917702882361F062E170E084ECDE
:1030F00094E00E94321463E170E08AEA94E00E9456
:1031000032140E9440066EE070E085E795E00E9470
:10311000C7146FE070E082E795E00E94C71460E199
:1031200070E08FE695E00E94C71461E170E08CE6E4
:1031300095E00E94C71482E3809382058093830503
:10314000809384058093850561E081E00E949F0E55
:1031500084E090E090933A058093390589E090E00F
:1031600090933C0580933B0586E090E090933E056C
:1031700080933D051092400510923F0534E6A32E42
:10318000B12CB0924205A092410540E3C42ED12C4F
:10319000D0924405C092430554E3E52EF12CF09201
:1031A0004605E092450502E310E010934A050093BE
:1031B00049051092520561E084E00E949F0E61E093
:1031C00080913B050E949F0E61E080913D050E9429
:1031D0009F0E60E0809139050E94CC0D60E08091E7
:1031E0003B050E94CC0D61E080913D050E94CC0D15
:1031F00085E090E0909313058093120582E090E0C3
:10320000909315058093140583E090E09093170543
:10321000809316051092190510921805B0921B059F
:10322000A0921A05D0921D05C0921C05F0921F05B0
:10323000E0921E05109323050093220510922B05A2
:1032400061E085E00E949F0E61E0809114050E947C
:103250009F0E61E0809116050E949F0E60E08091B4
:1032600012050E94CC0D60E0809114050E94CC0DE7
:1032700061E0809116050E94CC0D8FEF890D8230A0
:1032800018F086E0981203C080E2809300018091DC
:103290000001803269F030F4813071F0883099F4A7
:1032A00092E00BC0803431F0803869F495E005C0BD
:1032B00093E003C094E001C091E08091B100887F69
:1032C000892B8093B100809143028450823008F0B2
:1032D0002AC31092FF011092FE0110929F031092D8
:1032E000C10310929D0311E010939C031092770389
:1032F00061E082E10E94CC0D61E083E10E94CC0D8F
:103300008091B9008E7F8093B9008091B9008D7F44
:103310008093B90080E28093B80085E48093BC007C
:1033200010939E0388E68093C00310929F0310922F
:10333000C1030E94C41690914302953029F488235A
:1033400019F01092430201C111E010939E0308E6A8
:103350000093C00310929F031092C1038BE690E08C
:103360000E94521580E090E00E9452150E94C416FF
:1033700010939E030093C00310929F031092C10309
:103380008CE190E00E94521580E190E00E9452157D
:103390000E94C41610939E030093C00310929F03D3
:1033A0001092C1038BE190E00E94521588E190E0F9
:1033B0000E9452150E94C4166CED75E080E090E00A
:1033C0000E945F0FE12CF12C24EFE21621E0F206BF
:1033D00009F479C00E943A0F00914402109145020D
:1033E0002091460230914702DC01CB01801B910BFA
:1033F000A20BB30B80349F41A105B10528F30E94B5
:10340000BC0780910C0290910D02092E000CAA0BB2
:10341000BB0B40910E0250910F026091100270910F
:103420001102840F951FA61FB71F80930E02909361
:103430000F02A0931002B0931102809106029091A6
:103440000702092E000CAA0BBB0B409108025091F9
:10345000090260910A0270910B02840F951FA61F4A
:10346000B71F8093080290930902A0930A02B093B9
:103470000B028091000290910102092E000CAA0B10
:10348000BB0B4091020250910302609104027091C3
:103490000502840F951FA61FB71F80930202909309
:1034A0000302A0930402B09305020E943A0F6093B6
:1034B0004402709345028093460290934702FFEFC7
:1034C000EF1AFF0A81CF60910E0270910F02809176
:1034D00010029091110224EFC22EDD24D394E12C2E
:1034E000F12CA70196010E942D2C20930E023093FF
:1034F0000F024093100250931102609108027091E4
:10350000090280910A0290910B02A70196010E9484
:103510002D2C209308023093090240930A02509305
:103520000B0260910202709103028091040290915B
:103530000502A70196010E942D2C209302023093D0
:103540000302409304025093050260912406709197
:10355000250680912606909127060E940E2B9B013E
:10356000AC0160E070E080E091E40E943E276B01D6
:103570007C019B01AC016091060670910706809169
:103580000806909109060E946F2B609306067093BF
:1035900007068093080690930906A701960160919B
:1035A0000A0670910B0680910C0690910D060E9400
:1035B0003E2760930A0670930B0680930C06909347
:1035C0000D0688E090E0A0E0B0E0809324069093A0
:1035D0002506A0932606B0932706412C512C14E013
:1035E000612E12EC712E40922806509229066092AC
:1035F0002A0670922B06C12CD12C04E0E02E02E4A6
:10360000F02EC0922C06D0922D06E0922E06F0925B
:103610002F06809130060091140610911506F801CE
:1036200080809180A280B380882309F44EC0A701D6
:103630009601C501B4010E944128181634F4F8011E
:10364000C082D182E282F3820FC020E030E044E009
:1036500052ECC501B4010E94092B87FF05C0F80197
:10366000408251826282738280901C0690901D0677
:10367000A0901E06B0901F06C0902C06D0902D067C
:10368000E0902E06F0902F06A7019601C501B40127
:103690000E944128181684F0C0902806D090290670
:1036A000E0902A06F0902B06A7019601C501B4010F
:1036B0000E94092B87FF3DC0C0921C06D0921D06B8
:1036C000E0921E06F0921F0634C080921C06909273
:1036D0001D06A0921E06B0921F06E0911206F09100
:1036E000130680819181A281B381809320069093FB
:1036F0002106A0932206B093230620E030E044E0A8
:1037000052E4C501B4010E9441281816ACF220E031
:1037100030E044E052ECC501B4010E94092B87FF60
:1037200008C040921C0650921D0660921E067092C0
:103730001F0681E0809330066091DC057091DD0505
:103740008091DE059091DF050E940E2B9B01AC015C
:1037500060E070E080E091E40E943E276B017C0114
:103760009B01AC016091BE057091BF058091C005C1
:103770009091C1050E946F2B6093BE057093BF05A9
:103780008093C0059093C105A70196016091C20581
:103790007091C3058091C4059091C5050E943E2794
:1037A0006093C2057093C3058093C4059093C505CB
:1037B00088E090E0A0E0B0E08093DC059093DD0528
:1037C000A093DE05B093DF05412C512CACE26A2EAC
:1037D000A2EC7A2E4092E0055092E1056092E2055B
:1037E0007092E305C12CD12CBCE2EB2EB2E4FB2E8F
:1037F000C092E405D092E505E092E605F092E70577
:103800008091E8050091CC051091CD05F8018080EC
:103810009180A280B380882309F44EC0A70196014D
:10382000C501B4010E944128181634F4F801C08281
:10383000D182E282F3820FC020E030E04CE252EC11
:10384000C501B4010E94092B87FF05C0F801408221
:103850005182628273828090D4059090D505A090A9
:10386000D605B090D705C090E405D090E505E0906E
:10387000E605F090E705A7019601C501B4010E9495
:103880004128181684F0C090E005D090E105E09042
:10389000E205F090E305A7019601C501B4010E947D
:1038A000092B87FF3DC0C092D405D092D505E09288
:1038B000D605F092D70534C08092D4059092D505F4
:1038C000A092D605B092D705E091CA05F091CB053C
:1038D00080819181A281B3818093D8059093D9058D
:1038E000A093DA05B093DB0520E030E04CE252E42F
:1038F000C501B4010E9441281816ACF220E030E066
:103900004CE252ECC501B4010E94092B87FF08C0AC
:103910004092D4055092D5056092D6057092D70595
:1039200081E08093E80588E795E0FAE0F80FFD83F1
:10393000F4E62F2E312C87E10E947B1580FD5AC0C2
:103940000E9478158FEF0E943A028E830E947515AF
:103950000E9478158E8190E0959587958770886A8A
:103960000E943A0208E715E0FD81F01731F0F801F6
:1039700081918F010E943A02F7CF0E9475159091B4
:103980009105983010F4E92E02C078E0E72E80917E
:103990009205811103C0F92EFE1801C0F12C0E947E
:1039A000781581E60E943A0202E815E0EA94FFEFFA
:1039B000EF1639F08FEF0E943A02F80181938F01E0
:1039C000F5CFFF2029F08FEF0E943A02FA94F9CF49
:1039D0000E94751560E787E00E94921510927202AE
:1039E0000E94990F609348027093490280934A02A3
:1039F00090934B020E94990FC0904802D0904902C8
:103A0000E0904A02F0904B02DC01CB018C199D0939
:103A1000AE09BF09853F9140A105B105C8F080916D
:103A200012028F5F823018F48093120202C010924B
:103A30001202E0911202F0E0EC57FE4F1081612F6C
:103A40001E3708F06DE785E00E94921510938105FE
:103A50000E94990FDC01CB018C199D09AE09BF09A9
:103A6000893E9340A105B10570F082E38093820501
:103A700080938305809384058093850581E08093FE
:103A80007202809380050E94990FDC01CB018C1992
:103A90009D09AE09BF09813D9740A105B10560F0C0
:103AA0000E9440060E94990F609348027093490259
:103AB00080934A0290934B02F090430225E0F21665
:103AC00001F120918205822F90E0A0E0B0E09C01FE
:103AD000AD012456310941095109AAE5B0E00E941F
:103AE0004C2C2CE93FEF4FEF5FEF0E942D2CCA01C9
:103AF000B901635D7F4F8F4F9F4F85E795E00E942F
:103B0000461420918305822F90E0A0E0B0E09C0154
:103B1000AD012456310941095109AAE5B0E00E94DE
:103B20004C2C2CE93FEF4FEF5FEF0E942D2CCA0188
:103B3000B901635D7F4F8F4F9F4F82E795E00E94F1
:103B4000461420918405822F90E0A0E0B0E09C0113
:103B5000AD012456310941095109AAE5B0E00E949E
:103B60004C2C2CE93FEF4FEF5FEF0E942D2CCA0148
:103B7000B901635D7F4F8F4F9F4F8FE695E00E94A5
:103B8000461420918505822F90E0A0E0B0E09C01D2
:103B9000AD012456310941095109AAE5B0E00E945E
:103BA0004C2C2CE93FEF4FEF5FEF0E942D2CCA0108
:103BB000B901635D7F4F8F4F9F4F8CE695E00E9468
:103BC0004614FF2009F46FC085E0F8126FC00E9410
:103BD000AE088091820590E08C010253110960913A
:103BE000840570E06253710977FF03C07195619598
:103BF0007109072E000C880B990B0E94102B209145
:103C00003702309138024091390250913A020E94B5
:103C10006F2B0E94B0272091890530E0269FA001DC
:103C2000279F500D369F500D1124CA01B1010E94EB
:103C30008826600F711F6333710514F062E370E032
:103C40008B016E3C7F4F14F40EEC1FEFC801012E68
:103C5000000CAA0BBB0B9C01AD0122533109410999
:103C60005109AAE5B0E00E944C2C2CE93FEF4FEF40
:103C70005FEF0E942D2CCA01B901635D7F4F8F4F0A
:103C80009F4F85E795E00E944614B8016E5C7F4F18
:103C9000E12C00E010E02FEF30E040E050E082E166
:103CA00095E00E94C2120E940C06D9C2E3E0FE1207
:103CB00022C06091840570E0EE24E39407E010E0F8
:103CC0002FEF30E040E050E089E395E00E94C2121F
:103CD000882351F00E94990F60933F027093400235
:103CE00080934102909342026091830570E0E12C41
:103CF00000E010E08CC1F4E0FF12A6C10E94AE0803
:103D000080913B0290913C02A0913D02B0913E0215
:103D10008093AA059093AB05A093AC05B093AD0535
:103D20000E94990F0091500210915102209152026D
:103D300030915302DC01CB01801B910BA20BB30B22
:103D40008897A105B105F0F00E94990F6093500289
:103D500070935102809352029093530280914E02CD
:103D600090914F02880F991F880F991F2091840509
:103D7000820F911D65E070E00E94882670934F02CB
:103D800060934E026091890570E080E090E00E94AF
:103D9000102B20E030E040E05EE30E946F2B69834F
:103DA0007A838B839C8360914E0270914F02072E21
:103DB000000C880B990B0E94102B20E030E048E4A7
:103DC00052E40E94B6262EEA37E441EC5FE30E94FB
:103DD0003E276093EA057093EB058093EC05909382
:103DE000ED0560914C0270914D02072E000C880B7E
:103DF000990B0E94102B2B013C0126E636E646EA81
:103E00005FE30E946F2B6093F2057093F30580933C
:103E1000F4059093F505A0901006B0901106C12C02
:103E2000D12C76010FE812EC25EF3CE346E656E68E
:103E300066E67FE386EF95E00E947F108091300672
:103E4000882321F086EF95E00E94361120E030E0D3
:103E500044E051EC6091EE057091EF058091F00522
:103E60009091F1050E943E276093A2057093A305EF
:103E70008093A4059093A505A090C805B090C905AE
:103E800020E030E0A90169817A818B819C810E94C8
:103E9000092B87FD14C05FE8C52E52ECD52E55EFD7
:103EA000E52E5DE3F52E00E010E028EC31E44981D9
:103EB0005A816B817C818EEA95E00E947F1080910F
:103EC000E805882321F08EEA95E00E9436111091D2
:103ED00082058090370290903802A0903902B0900D
:103EE0003A0220E030E048E452E46091A605709187
:103EF000A7058091A8059091A9050E94B7260E9468
:103F0000B0276B017C017A8369830E94990F683026
:103F1000710581059105F0F020E030E040E450E4C7
:103F2000C301B2010E946F2B2091A6053091A70515
:103F30004091A8055091A9050E94B72620E030E0E5
:103F400040E85EE30E946F2B0E94B02770934D0201
:103F500060934C0289819A81079744F09EE5C916C7
:103F6000D1043CF04DE5C42ED12C03C037E0C32E64
:103F7000D12C4090AA055090AB056090AC05709094
:103F8000AD0520E030E040EA51ECC301B2010E94EF
:103F9000412818160CF040C020E030E040EA51E41F
:103FA000C301B2010E94092B87FF36C0812F90E028
:103FB000C29767E070E00E948826072E000C880BED
:103FC000990B0E94102BA50194010E94B6260E9415
:103FD000B0276830710514F067E070E05B01693F5D
:103FE0007F4F24F429EFA22EBB24BA94B6016A199C
:103FF0007B09E12C00E010E02FEF30E040E050E0E2
:1040000089E395E00E94C212B6016A0D7B1D2FEF75
:1040100030E040E050E013C0E12C00E010E02FEF72
:1040200030E040E050E062E370E089E395E00E9418
:10403000C2122FEF30E040E050E062E370E082E136
:1040400095E00E94C2120BC120918205213398F4A1
:1040500030E0A4E6B0E00E94B82C20E330E040E07D
:1040600050E00E942D2C6901253631051CF194E6A3
:10407000C92ED12C1FC084E6C82ED12C2433D0F0F9
:10408000822F90E0A0E0B0E09C01AD012456310900
:1040900041095109A4E6B0E00E944C2C20ED3FEF0D
:1040A0004FEF5FEF0E942D2C57FD07C08901253689
:1040B00031052CF004E610E002C000E010E026E03C
:1040C000F21218C0B60181E591E00E94060B6C0166
:1040D000B80181E591E00E94060B7C018091840586
:1040E000823320F0853618F084E601C082E38093A5
:1040F000840521C082E0F8120AC0B60189E291E08D
:104100000E94060B6C01B80189E291E00CC091E0BD
:10411000F9120DC0B60181E091E00E94060B6C011E
:10412000B80181E091E00E94060B7C0104C0E12C03
:10413000F12CC12CD12CA0918405B0E028E33FEFF5
:104140004FEF5FEF0E944C2C24E630E040E050E05F
:104150000E942D2C29013A01E4E64E0E511C611CEF
:10416000711CD701A30192010E94572C24E630E074
:1041700040E050E00E942D2CC901330FAA0BBB0B6D
:104180009C01AD012456310941095109ACE9BFEF49
:104190000E945A2C28E33FEF4FEF5FEF0E942D2C37
:1041A00049015A01F4E68F0E911CA11CB11CD601E5
:1041B000A30192010E94572C24E630E040E050E039
:1041C0000E942D2CC901330FAA0BBB0B9C01AD0122
:1041D0002456310941095109ACE9BFEF0E945A2C1C
:1041E00028E33FEF4FEF5FEF0E942D2C29013A01AA
:1041F00084E6480E511C611C711CE12C00E010E0AB
:104200002FEF30E040E050E0B40189E395E00E94F8
:10421000C2122FEF30E040E050E0B20182E195E0C1
:104220000E94C21298E2891A9108E5E18E16910463
:1042300060F4F8E24F1651046104710434F02DE388
:10424000421651046104710454F00E94990F609366
:104250003F02709340028093410290934202FF24F8
:10426000F394F09271020E94990F00913F02109115
:1042700040022091410230914202DC01CB01801BBF
:10428000910BA20BB30B883E9340A105B10518F02A
:104290001092700202C0F09270020E94990F009179
:1042A0006C0210916D0220916E0230916F02DC0160
:1042B000CB01801B910BA20BB30B883E9340A10551
:1042C000B10508F4DCC00E94990F60936C027093F2
:1042D0006D0280936E0290936F02809154029091D0
:1042E0005502892B09F454C000915C0210915D02C3
:1042F00010935F0200935E02E0905A02F0905B021E
:10430000F0925D02E0925C02C0905802D090590297
:10431000D0925B02C0925A02A0905602B09057020F
:10432000B0925902A0925802809054029090550287
:1043300090925702809256020E943F159093550228
:1043400080935402BC01680D791D6A0D7B1D6C0DB4
:104350007D1D6E0D7F1D600F711F072E000C880BD9
:10436000990B0E94102B20EF3FEF4AE154E40E948A
:104370003E2760937C0570937D0580937E05909326
:104380007F058091600290916102892B71F019C0C4
:1043900004E512E00E943F15F801819391938F018B
:1043A000F2E000361F07B1F79FCF00E612E00E944F
:1043B000B20BF801619371938F01F2E00C361F0785
:1043C000B1F7009168021091690210936B0200939B
:1043D0006A02E0906602F0906702F0926902E09251
:1043E0006802C0906402D0906502D0926702C092C9
:1043F0006602A0906202B0906302B0926502A09241
:1044000064028090600290906102909263028092B8
:1044100062020E94B20B7093610260936002680DA9
:10442000791D6A0D7B1D6C0D7D1D6E0D7F1D600F4E
:10443000711F072E000C880B990B0E94102B20E097
:1044400030E84BEB55E40E943E276093780570936B
:10445000790580937A0590937B0526E636E646E655
:1044600050E460917C0570917D0580917E0590916E
:104470007F050E94092B181614F010928005809178
:1044800086058823F9F00E94990F00916405109128
:1044900065052091660530916705DC01CB01801B25
:1044A000910BA20BB30B883E9340A105B10550F0D0
:1044B0000E94990F6093640570936505809366056B
:1044C00090936705809187058823F9F00E94990FE2
:1044D000009160051091610520916205309163059E
:1044E000DC01CB01801B910BA20BB30B883E9340E8
:1044F000A105B10550F00E94990F6093600570937B
:1045000061058093620590936305809188058823F7
:1045100099F161E081E00E94CC0D0E94990F009119
:1045200068051091690520916A0530916B05DC01E1
:10453000CB01801B910BA20BB30B883E9340A105CE
:10454000B105F0F00E94CE2926E030E040E050E0D6
:104550000E942D2C6F5F7F4F8F4F9F4F83E00E94F3
:10456000DE050E94990F609368057093690580933A
:104570006A0590936B0504C060E081E00E94CC0D59
:104580000E94990F00913F02109140022091410238
:1045900030914202DC01CB01801B910BA20BB30BCB
:1045A00080319742A105B10568F08EED94E00E943C
:1045B000181488EF94E00E94181480E994E00E9497
:1045C000181422C089E395E00E9494128111C2C0A0
:1045D0000EE010E020E030E04AE050E060E070E003
:1045E00088EF94E00E9426160AE812E020E030E00E
:1045F00042E350E060E070E080E994E00E9426161B
:104600008EED94E00E94251480917702882309F4AE
:104610009EC080918505853020F491E090937602CC
:104620000AC0883340F010927602803620F081E094
:104630008093750204C08D3210F41092750280913F
:10464000820590E02091730230917402265F3F4F03
:104650002817390734F410927602909374028093ED
:10466000730220917302309174022A50310982172B
:10467000930734F41092750290937402809373023E
:1046800080917602882391F01092750207E711E07D
:1046900020E030E047E751E060E070E084EC94E037
:1046A0000E9426168AEA94E00E941814F09075027F
:1046B000FF2091F01092760207E711E020E030E051
:1046C00047E751E060E070E08AEA94E00E94261635
:1046D00084EC94E00E94181490917202809176020A
:1046E000992349F1882331F01092760284EC94E00A
:1046F0000E941814FF2031F0109275028AEA94E0AB
:104700000E94181407E711E020E030E047E751E08D
:1047100060E070E084EC94E00E94261607E711E068
:1047200020E030E047E751E060E070E08AEA94E0A2
:104730000E9426160CC081110AC0F11008C084EC3A
:1047400094E00E9418148AEA94E00E9418140E94CF
:10475000C20CF1C888EF94E00E94251445CF8091E7
:104760006B0490916C040E94712A85EC91E0909307
:1047700072048093710481E794E00C9469104F9265
:104780005F926F927F92AF92BF92CF92DF92EF9241
:10479000FF920F931F93CF931092C5031092C403FF
:1047A00098EE492E93E0592E612C712C4092C6034D
:1047B0005092C7036092C8037092C90385EA91E0E2
:1047C0009093C3038093C20385EC90E09093CF0352
:1047D0008093CE0384EC90E09093D1038093D00338
:1047E00080EC90E09093D3038093D20381EC90E02F
:1047F0009093D5038093D40382EC90E09093D703F9
:104800008093D60386EC90E09093D9038093D803ED
:104810001092DB031092DC031092DD031092DE0392
:1048200010926204109261044092630450926404F6
:10483000609265047092660485EB91E09093600449
:1048400080935F048EEE95E0909315068093140696
:1048500082EF95E090931306809312068AEE95E01E
:104860009093170680931606109230061092280631
:104870001092290610922A0610922B0680E090E0F2
:10488000AFE7B3E480932C0690932D06A0932E06F9
:10489000B0932F0684E690E0A0E0B0E08093240679
:1048A00090932506A0932606B093270610920F0634
:1048B00010920E06AA24A394B12CC12CD12C7601FF
:1048C00097018601B701A60186EF95E00E947F104F
:1048D0000E94990F0091240610912506209126062A
:1048E00030912706DC01CB01801B910BA20BB30B8F
:1048F0008093180690931906A0931A06B0931B068E
:1049000086EA95E09093CD058093CC058AEA95E000
:104910009093CB058093CA0582EA95E09093CF05EA
:104920008093CE051092E805C092E005D092E10593
:10493000E092E205F092E30580E090E0AFE7B3E4B7
:104940008093E4059093E505A093E605B093E70511
:1049500084E690E0A0E0B0E08093DC059093DD0574
:10496000A093DE05B093DF051092C7051092C6052F
:1049700097018601B701A6018EEA95E00E947F109B
:104980000E94990F0091DC051091DD052091DE0554
:104990003091DF05DC01CB01801B910BA20BB30B27
:1049A0008093D0059093D105A093D205B093D30501
:1049B00088E090E090938B0580938A0587E090E0F3
:1049C00090938D0580938C051092900580E28093E2
:1049D00091051092920585E08093980585E090E01E
:1049E000A0E0B0E080939E0590939F05A093A00562
:1049F000B093A10510929305109286051092870539
:104A000010928805C1E0C0938005C093810585E7B9
:104A100095E00E94231582E795E00E9423158FE61A
:104A200095E00E9423158CE695E00E9423150E94D4
:104A3000990F609368057093690580936A05909358
:104A40006B050E94990F60936405709365058093D0
:104A50006605909367050E94990F609360057093B7
:104A6000610580936205909363051092530510923F
:104A70005405109255051092560510925705109244
:104A800058051092590510925A0510925B05109224
:104A90002C0510922D0510922E0510922F051092C4
:104AA00030051092310510923205109233051092A4
:104AB0003405109209051092080510920C05109209
:104AC0000D0510920E0510920F0510921005109210
:104AD00011051092EF041092EE041092F20410925D
:104AE000F3041092F4041092F5041092F60410925C
:104AF000F7041092D5041092D4041092D8041092A6
:104B0000D9041092DA041092DB041092DC041092A3
:104B1000DD041092BB041092BA041092BE041092ED
:104B2000BF041092C0041092C1041092C2041092EB
:104B3000C3041092A1041092A0041092A404109235
:104B4000A5041092A6041092A7041092A804109233
:104B5000A904109274041092730440927504509248
:104B60007604609277047092780485EC91E09093DB
:104B7000720480937104109288041092870410923A
:104B80008A041092890410928C0410928B04109263
:104B90008E0410928D0480918F048E7F8D7F809380
:104BA0008F0486958170682F6C2781E00E94CC0D60
:104BB00061E081E00E949F0EECE0F1E0E491E0937F
:104BC0008104E8EFF0E0E491F0E0EE0FFF1FED511B
:104BD000FF4F85919491909383048093820460E0C9
:104BE00080E00E949F0E80918F0481FD04C061E0EF
:104BF00080E00E94CC0D10927D04EBE0F1E0E491A6
:104C0000E0937E04E7EFF0E0E491F0E0EE0FFF1FA9
:104C1000E351FF4F859194919093800480937F049A
:104C200010926C0410926B0410926E0410926D043A
:104C30001092700410926F0461E070E080E090E0E8
:104C40000E94A128009789F090936C0480936B04D4
:104C500010926E0410926D0420916F0430917004D4
:104C6000232B29F5DC011C9222C080916B049091CA
:104C70006C04009711F00E94712A10926C0410923B
:104C80006B041092700410926F0410926E041092D4
:104C90006D04CF911F910F91FF90EF90DF90CF9017
:104CA000BF90AF907F906F905F904F90089510925B
:104CB000700410926F0469EF71E0CF911F910F9112
:104CC000FF90EF90DF90CF90BF90AF907F906F906C
:104CD0005F904F900C947929DB018F939F930E94F2
:104CE0004C2CBF91AF91A29F800D911DA39F900D61
:104CF000B29F900D11240895991B79E004C0991F6B
:104D0000961708F0961B881F7A95C9F78095089525
:104D100097FB072E16F4009407D077FD09D00E9468
:104D2000A22607FC05D03EF4909581959F4F0895EB
:104D3000709561957F4F0895EE0FFF1F0590F491D8
:104D4000E02D0994AA1BBB1B51E107C0AA1FBB1F82
:104D5000A617B70710F0A61BB70B881F991F5A9507
:104D6000A9F780959095BC01CD0108955058BB27B7
:104D7000AA270E94CE260C94F32B0E94E52B38F034
:104D80000E94EC2B20F039F49F3F19F426F40C9488
:104D9000E22B0EF4E095E7FB0C94DC2BE92F0E944C
:104DA000042C58F3BA17620773078407950720F09D
:104DB00079F4A6F50C94262C0EF4E0950B2EBA2F60
:104DC000A02D0B01B90190010C01CA01A001112411
:104DD000FF27591B99F0593F50F4503E68F11A16BD
:104DE000F040A22F232F342F4427585FF3CF46954E
:104DF00037952795A795F0405395C9F77EF41F1670
:104E0000BA0B620B730B840BBAF09150A1F0FF0F39
:104E1000BB1F661F771F881FC2F70EC0BA0F621F25
:104E2000731F841F48F4879577956795B795F79515
:104E30009E3F08F0B0CF9395880F08F09927EE0FAA
:104E40009795879508959F939F77EEE389379E07FF
:104E500028F4E6E7F0E00E942D280CC00E94E62727
:104E60009058A2EA2AED3FE049EC5FE30E94CE268B
:104E70000E94F32B0F9007FC905808950E94522730
:104E80000C94F32B0E94EC2B58F00E94E52B40F081
:104E900029F45F3F29F00C94DC2B51110C94272C42
:104EA0000C94E22B0E94042C68F39923B1F3552350
:104EB00091F3951B550BBB27AA276217730784072D
:104EC00038F09F5F5F4F220F331F441FAA1FA9F3C3
:104ED00035D00E2E3AF0E0E832D091505040E695B1
:104EE000001CCAF72BD0FE2F29D0660F771F881F12
:104EF000BB1F261737074807AB07B0E809F0BB0B05
:104F0000802DBF01FF2793585F4F3AF09E3F510518
:104F100078F00C94DC2B0C94272C5F3FE4F3983E44
:104F2000D4F3869577956795B795F7959F5FC9F701
:104F3000880F911D9695879597F90895E1E0660F82
:104F4000771F881FBB1F621773078407BA0720F0FB
:104F5000621B730B840BBA0BEE1F88F7E095089564
:104F60000E94B7276894B1110C94272C08950E94D1
:104F70000C2C88F09F5798F0B92F9927B751B0F0B3
:104F8000E1F0660F771F881F991F1AF0BA95C9F7CD
:104F900014C0B13091F00E94262CB1E008950C9419
:104FA000262C672F782F8827B85F39F0B93FCCF3CC
:104FB000869577956795B395D9F73EF4909580954A
:104FC000709561957F4F8F4F9F4F0895DF93CF93DB
:104FD0001F930F938B01EC01EAE8F0E00E94062892
:104FE0000E94F32B9801AE018B01EC0160E070E0B0
:104FF00080E89FE30E94B6260E944C289801AE01EB
:105000000F911F91CF91DF910C94822BDF93CF935F
:105010001F930F93FF92EF92DF927B018C016894B4
:1050200006C0DA2EEF010E94822BFE01E894A591C2
:105030002591359145915591A6F3EF010E94CE2619
:10504000FE019701A801DA9469F7DF90EF90FF90D5
:105050000F911F91CF91DF9108959F938F937F932D
:105060006F93FF93EF939B01AC010E946F2BEF9125
:10507000FF910E9406282F913F914F915F910C94D0
:105080006F2B0E944B2B08F48FEF089519F416F440
:105090000C94E22B0C948C280E940C2CB8F39923CE
:1050A000C9F3B6F39F57550B87FF0E949A28002437
:1050B000A0E640EA900180585695979528F4805CC8
:1050C000660F771F881F20F026173707480730F430
:1050D000621B730B840B202931294A2BA695179448
:1050E0000794202531254A2758F7660F771F881F18
:1050F00020F026173707480730F4620B730B840B38
:10510000200D311D411DA09581F7B901842F9158C3
:10511000880F9695879508959F3F31F0915020F420
:10512000879577956795B795880F911D9695879583
:1051300097F9089591505040660F771F881FD2F756
:105140000895A0E0B0E0E7EAF8E20C94632CEC01EB
:10515000009721F4CB010E94DC29B8C0FC01E60FC6
:10516000F71F9C0122503109E217F30708F4ACC085
:10517000D9010D911C91119706171707B0F0053052
:10518000110508F49FC0C80104978617970708F413
:1051900099C002501109061B170B019311936D93CF
:1051A0007C93CF010E94712A8DC05B01A01AB10AC5
:1051B0004C01800E911EA0913406B091350640E05E
:1051C00050E0E12CF12C109709F44AC0A815B9055C
:1051D000D1F56D907C901197630182E0C80ED11CCF
:1051E000CA14DB0480F1A3014A195B096A0182E059
:1051F000C80ED11C1296BC9012971396AC91B5E0D4
:10520000CB16D10440F0B282A38351834083D901ED
:105210006D937C930AC00E5F1F4FC301800F911FD7
:10522000F90191838083EB2DFA2FE114F10431F021
:10523000D7011396FC93EE93129744C0F093350672
:10524000E09334063FC08D919C9111974817590700
:1052500008F4AC017D0112960D90BC91A02DB3CF46
:10526000809132069091330688159905E1F446172E
:105270005707C8F480917E0190917F01009741F417
:105280008DB79EB74091820150918301841B950B8D
:10529000E817F907C8F4F0933306E0933206F901F2
:1052A000718360830FC0CB010E94DC297C010097D1
:1052B00059F0A801BE010E947029CE010E94712AF6
:1052C000C70104C0CE0102C080E090E0CDB7DEB7D8
:1052D000EEE00C947F2C81E090E0F8940C94C72CC5
:1052E000FB01DC0102C001900D9241505040D8F703
:1052F0000895FB01DC0101900D920020E1F7089573
:105300008F929F92AF92BF92CF92DF92EF92FF92D5
:10531000CF93DF93EC01688179818A819B8161154C
:1053200071058105910521F464E279ED8BE597E043
:105330002DE133EF41E050E00E942D2C49015A014C
:105340009B01AC01A7EAB1E40E944C2C6B017C01EB
:10535000ACEEB4EFA50194010E945A2CDC01CB0104
:105360008C0D9D1DAE1DBF1DB7FF03C00197A10988
:10537000B04888839983AA83BB83BC01CD019F7702
:10538000DF91CF91FF90EF90DF90CF90BF90AF90E3
:105390009F908F9008950E94802908958AE791E058
:1053A0000E948029089560937A0170937B01809315
:1053B0007C0190937D010895CF93DF938230910516
:1053C00010F482E090E0E0913406F091350620E0A0
:1053D00030E0C0E0D0E0309711F1408151814817B2
:1053E0005907C0F04817590761F4828193812097CB
:1053F00019F09B838A832BC09093350680933406E3
:1054000026C02115310519F04217530718F49A01E7
:10541000BE01DF01EF010280F381E02DDCCF211519
:10542000310509F1281B390B2430310590F412960F
:105430008D919C9113976115710521F0FB01938368
:10544000828304C09093350680933406FD01329622
:1054500044C0FD01E20FF31F819391932250310963
:105460002D933C933AC02091320630913306232B82
:1054700041F42091800130918101309333062093D3
:10548000320620917E0130917F012115310541F4D2
:105490002DB73EB74091820150918301241B350BFB
:1054A000E0913206F0913306E217F307A0F42E1BC9
:1054B0003F0B2817390778F0AC014E5F5F4F241778
:1054C000350748F04E0F5F1F509333064093320666
:1054D0008193919302C0E0E0F0E0CF01DF91CF91A2
:1054E00008950F931F93CF93DF93009709F48CC017
:1054F000FC01329713821282009134061091350616
:105500000115110581F420813181820F931F2091B3
:105510003206309133062817390779F5F0933306B0
:10552000E093320671C0D80140E050E0AE17BF07EB
:1055300050F412962D913C911397AD012115310530
:1055400009F1D901F3CF9D01DA0133832283608110
:105550007181860F971F8217930769F4EC012881E8
:105560003981260F371F2E5F3F4F318320838A8179
:105570009B8193838283452B29F4F0933506E09336
:10558000340642C01396FC93EE931297ED014991B5
:1055900059919E01240F351FE217F30771F48081A2
:1055A0009181840F951F029611969C938E93828110
:1055B000938113969C938E931297E0E0F0E0D801CC
:1055C00012968D919C911397009719F0F8018C0118
:1055D000F6CF8D919C9198012E5F3F4F820F931FC4
:1055E00020913206309133062817390769F4309735
:1055F00029F4109235061092340602C013821282EA
:105600001093330600933206DF91CF911F910F91D3
:1056100008950E944B2B08F481E00895E89409C096
:1056200097FB3EF490958095709561957F4F8F4FD5
:105630009F4F9923A9F0F92F96E9BB279395F695EB
:10564000879577956795B795F111F8CFFAF4BB0F69
:1056500011F460FF1BC06F5F7F4F8F4F9F4F16C0CD
:10566000882311F096E911C0772321F09EE8872F57
:10567000762F05C0662371F096E8862F70E060E013
:105680002AF09A95660F771F881FDAF7880F96958C
:10569000879597F90895990F0008550FAA0BE0E830
:1056A000FEEF16161706E807F907C0F012161306E4
:1056B000E407F50798F0621B730B840B950B39F424
:1056C0000A2661F0232B242B252B21F408950A268A
:1056D00009F4A140A6958FEF811D811D08950E94B8
:1056E000822B0C94F32B0E94E52B38F00E94EC2BBC
:1056F00020F0952311F00C94DC2B0C94E22B112458
:105700000C94272C0E94042C70F3959FC1F3950FE5
:1057100050E0551F629FF001729FBB27F00DB11D35
:10572000639FAA27F00DB11DAA1F649F6627B00DC5
:10573000A11D661F829F2227B00DA11D621F739FAE
:10574000B00DA11D621F839FA00D611D221F749FBC
:105750003327A00D611D231F849F600D211D822F03
:10576000762F6A2F11249F5750409AF0F1F088232A
:105770004AF0EE0FFF1FBB1F661F771F881F915057
:105780005040A9F79E3F510580F00C94DC2B0C94FF
:10579000272C5F3FE4F3983ED4F386957795679581
:1057A000B795F795E7959F5FC1F7FE2B880F911D81
:1057B0009695879597F9089597F99F6780E870E027
:1057C00060E008959FEF80EC089500240A94161677
:1057D000170618060906089500240A9412161306DF
:1057E000140605060895092E0394000C11F488236D
:1057F00052F0BB0F40F4BF2B11F460FF04C06F5F89
:105800007F4F8F4F9F4F089557FD9058440F551F5E
:1058100059F05F3F71F04795880F97FB991F61F032
:105820009F3F79F087950895121613061406551FA9
:10583000F2CF4695F1DF08C0161617061806991F15
:10584000F1CF86957105610508940895E894BB270A
:1058500066277727CB0197F90895052E97FB1EF44D
:1058600000940E94442C57FD07D00E94962C07FC00
:1058700003D04EF40C94442C5095409530952195CE
:105880003F4F4F4F5F4F089590958095709561956C
:105890007F4F8F4F9F4F08950E94B82CA59F900D6A
:1058A000B49F900DA49F800D911D11240895B7FF02
:1058B0000C944C2C0E944C2C821B930B08952F921D
:1058C0003F924F925F926F927F928F929F92AF9290
:1058D000BF92CF92DF92EF92FF920F931F93CF93DD
:1058E000DF93CDB7DEB7CA1BDB0B0FB6F894DEBF74
:1058F0000FBECDBF09942A88398848885F846E849A
:105900007D848C849B84AA84B984C884DF80EE80E3
:10591000FD800C811B81AA81B981CE0FD11D0FB6EC
:10592000F894DEBF0FBECDBFED010895A1E21A2E9F
:10593000AA1BBB1BFD010DC0AA1FBB1FEE1FFF1F33
:10594000A217B307E407F50720F0A21BB30BE40B83
:10595000F50B661F771F881F991F1A9469F76095CA
:105960007095809590959B01AC01BD01CF01089584
:10597000A29FB001B39FC001A39F700D811D112490
:10598000911DB29F700D811D1124911D089510E08D
:10599000C1E9D0E004C0FE010E949C262196C239D4
:0859A000D107C9F7F894FFCF0D
:1059A8000800000000000070420000C84100008CA0
:1059B80042000048420000A042000096420000B4A5
:1059C800420000C8420000C842000000000000C8B1
:1059D800C20000E040000000000000A041000034C8
:1059E80042000070420000AA420000C8420000C8FD
:1059F80042000000000000A0410000C84100002053
:105A0800420000484200007042000096420000A098
:105A1800420000C8420000C842FF01000000000028
:105A2800360680000102FF0707FF000000FF0000A4
:105A380000C00D400C4D0A2D082D096F0FEA0A5AB7
:105A48001000000000590CD50B220C000C140CA0FF
:105A58000C000000004A011A011201FE00EF00EEDE
:105A68000000000000E50CD50B390D510DCC0CE4FD
:105A78000C536574206D6963726F53442061732001
:105A8800696E7075740053657420766F6C756D65FA
:0A5A980020746F203135000D0A0064
:107800000C94343C0C94513C0C94513C0C94513CE1
:107810000C94513C0C94513C0C94513C0C94513CB4
:107820000C94513C0C94513C0C94513C0C94513CA4
:107830000C94513C0C94513C0C94513C0C94513C94
